{
  "contractName": "Iot",
  "abi": [
    {
      "anonymous": false,
      "inputs": [
        {
          "indexed": false,
          "internalType": "uint256",
          "name": "_id",
          "type": "uint256"
        },
        {
          "indexed": false,
          "internalType": "bool",
          "name": "_on",
          "type": "bool"
        },
        {
          "indexed": false,
          "internalType": "uint256",
          "name": "_bri",
          "type": "uint256"
        },
        {
          "indexed": false,
          "internalType": "uint256",
          "name": "_hue",
          "type": "uint256"
        },
        {
          "indexed": false,
          "internalType": "uint256",
          "name": "_sat",
          "type": "uint256"
        }
      ],
      "name": "addNewLight",
      "type": "event"
    },
    {
      "anonymous": false,
      "inputs": [
        {
          "indexed": false,
          "internalType": "uint256",
          "name": "_id",
          "type": "uint256"
        },
        {
          "indexed": false,
          "internalType": "string",
          "name": "_name",
          "type": "string"
        },
        {
          "indexed": false,
          "internalType": "uint256",
          "name": "_batteryLevel",
          "type": "uint256"
        },
        {
          "indexed": false,
          "internalType": "bool",
          "name": "_on",
          "type": "bool"
        },
        {
          "indexed": false,
          "internalType": "uint256",
          "name": "_duration",
          "type": "uint256"
        },
        {
          "indexed": false,
          "internalType": "bool",
          "name": "_rechable",
          "type": "bool"
        },
        {
          "indexed": false,
          "internalType": "bool",
          "name": "_presence",
          "type": "bool"
        }
      ],
      "name": "addNewSensor",
      "type": "event"
    },
    {
      "anonymous": false,
      "inputs": [
        {
          "indexed": false,
          "internalType": "uint256",
          "name": "_id",
          "type": "uint256"
        },
        {
          "indexed": false,
          "internalType": "bool",
          "name": "_on",
          "type": "bool"
        },
        {
          "indexed": false,
          "internalType": "uint256",
          "name": "_bri",
          "type": "uint256"
        },
        {
          "indexed": false,
          "internalType": "uint256",
          "name": "_hue",
          "type": "uint256"
        },
        {
          "indexed": false,
          "internalType": "uint256",
          "name": "_sat",
          "type": "uint256"
        }
      ],
      "name": "getDeviceState",
      "type": "event"
    },
    {
      "anonymous": false,
      "inputs": [
        {
          "indexed": false,
          "internalType": "uint256",
          "name": "_id",
          "type": "uint256"
        },
        {
          "indexed": false,
          "internalType": "string",
          "name": "_name",
          "type": "string"
        },
        {
          "indexed": false,
          "internalType": "uint256",
          "name": "_batteryLevel",
          "type": "uint256"
        },
        {
          "indexed": false,
          "internalType": "bool",
          "name": "_on",
          "type": "bool"
        },
        {
          "indexed": false,
          "internalType": "uint256",
          "name": "_duration",
          "type": "uint256"
        },
        {
          "indexed": false,
          "internalType": "bool",
          "name": "_rechable",
          "type": "bool"
        },
        {
          "indexed": false,
          "internalType": "bool",
          "name": "_presence",
          "type": "bool"
        }
      ],
      "name": "getDeviceState",
      "type": "event"
    },
    {
      "anonymous": false,
      "inputs": [
        {
          "indexed": false,
          "internalType": "uint256",
          "name": "_id",
          "type": "uint256"
        },
        {
          "indexed": false,
          "internalType": "bool",
          "name": "_on",
          "type": "bool"
        },
        {
          "indexed": false,
          "internalType": "uint256",
          "name": "_bri",
          "type": "uint256"
        },
        {
          "indexed": false,
          "internalType": "uint256",
          "name": "_hue",
          "type": "uint256"
        },
        {
          "indexed": false,
          "internalType": "uint256",
          "name": "_sat",
          "type": "uint256"
        }
      ],
      "name": "modifyLightId",
      "type": "event"
    },
    {
      "anonymous": false,
      "inputs": [
        {
          "indexed": false,
          "internalType": "uint256",
          "name": "_id",
          "type": "uint256"
        },
        {
          "indexed": false,
          "internalType": "string",
          "name": "_name",
          "type": "string"
        },
        {
          "indexed": false,
          "internalType": "uint256",
          "name": "_batteryLevel",
          "type": "uint256"
        },
        {
          "indexed": false,
          "internalType": "bool",
          "name": "_on",
          "type": "bool"
        },
        {
          "indexed": false,
          "internalType": "uint256",
          "name": "_duration",
          "type": "uint256"
        },
        {
          "indexed": false,
          "internalType": "bool",
          "name": "_rechable",
          "type": "bool"
        },
        {
          "indexed": false,
          "internalType": "bool",
          "name": "_presence",
          "type": "bool"
        }
      ],
      "name": "modifySensorId",
      "type": "event"
    },
    {
      "constant": true,
      "inputs": [
        {
          "internalType": "uint256",
          "name": "",
          "type": "uint256"
        }
      ],
      "name": "allLights",
      "outputs": [
        {
          "internalType": "uint256",
          "name": "id",
          "type": "uint256"
        },
        {
          "internalType": "bool",
          "name": "on",
          "type": "bool"
        },
        {
          "internalType": "uint256",
          "name": "bri",
          "type": "uint256"
        },
        {
          "internalType": "uint256",
          "name": "hue",
          "type": "uint256"
        },
        {
          "internalType": "uint256",
          "name": "sat",
          "type": "uint256"
        }
      ],
      "payable": false,
      "stateMutability": "view",
      "type": "function"
    },
    {
      "constant": true,
      "inputs": [
        {
          "internalType": "uint256",
          "name": "",
          "type": "uint256"
        }
      ],
      "name": "allSensors",
      "outputs": [
        {
          "internalType": "uint256",
          "name": "id",
          "type": "uint256"
        },
        {
          "internalType": "string",
          "name": "name",
          "type": "string"
        },
        {
          "internalType": "uint256",
          "name": "batteryLevel",
          "type": "uint256"
        },
        {
          "internalType": "bool",
          "name": "on",
          "type": "bool"
        },
        {
          "internalType": "uint256",
          "name": "duration",
          "type": "uint256"
        },
        {
          "internalType": "bool",
          "name": "rechable",
          "type": "bool"
        },
        {
          "internalType": "bool",
          "name": "presence",
          "type": "bool"
        }
      ],
      "payable": false,
      "stateMutability": "view",
      "type": "function"
    },
    {
      "constant": false,
      "inputs": [
        {
          "internalType": "uint256",
          "name": "_id",
          "type": "uint256"
        },
        {
          "internalType": "bool",
          "name": "_on",
          "type": "bool"
        },
        {
          "internalType": "uint256",
          "name": "_bri",
          "type": "uint256"
        },
        {
          "internalType": "uint256",
          "name": "_hue",
          "type": "uint256"
        },
        {
          "internalType": "uint256",
          "name": "_sat",
          "type": "uint256"
        }
      ],
      "name": "addLight",
      "outputs": [],
      "payable": false,
      "stateMutability": "nonpayable",
      "type": "function"
    },
    {
      "constant": true,
      "inputs": [
        {
          "internalType": "uint256",
          "name": "_id",
          "type": "uint256"
        }
      ],
      "name": "getLightParams",
      "outputs": [
        {
          "internalType": "uint256",
          "name": "",
          "type": "uint256"
        },
        {
          "internalType": "bool",
          "name": "",
          "type": "bool"
        },
        {
          "internalType": "uint256",
          "name": "",
          "type": "uint256"
        },
        {
          "internalType": "uint256",
          "name": "",
          "type": "uint256"
        },
        {
          "internalType": "uint256",
          "name": "",
          "type": "uint256"
        }
      ],
      "payable": false,
      "stateMutability": "view",
      "type": "function"
    },
    {
      "constant": false,
      "inputs": [
        {
          "internalType": "uint256",
          "name": "_id",
          "type": "uint256"
        },
        {
          "internalType": "bool",
          "name": "_on",
          "type": "bool"
        },
        {
          "internalType": "uint256",
          "name": "_bri",
          "type": "uint256"
        },
        {
          "internalType": "uint256",
          "name": "_hue",
          "type": "uint256"
        },
        {
          "internalType": "uint256",
          "name": "_sat",
          "type": "uint256"
        }
      ],
      "name": "modifyLight",
      "outputs": [],
      "payable": false,
      "stateMutability": "nonpayable",
      "type": "function"
    },
    {
      "constant": false,
      "inputs": [
        {
          "internalType": "uint256",
          "name": "_id",
          "type": "uint256"
        },
        {
          "internalType": "string",
          "name": "_name",
          "type": "string"
        },
        {
          "internalType": "uint256",
          "name": "_batteryLevel",
          "type": "uint256"
        },
        {
          "internalType": "bool",
          "name": "_on",
          "type": "bool"
        },
        {
          "internalType": "uint256",
          "name": "_duration",
          "type": "uint256"
        },
        {
          "internalType": "bool",
          "name": "_rechable",
          "type": "bool"
        },
        {
          "internalType": "bool",
          "name": "_presence",
          "type": "bool"
        }
      ],
      "name": "addSensor",
      "outputs": [],
      "payable": false,
      "stateMutability": "nonpayable",
      "type": "function"
    },
    {
      "constant": true,
      "inputs": [
        {
          "internalType": "uint256",
          "name": "_id",
          "type": "uint256"
        }
      ],
      "name": "getSensorParams",
      "outputs": [
        {
          "internalType": "uint256",
          "name": "",
          "type": "uint256"
        },
        {
          "internalType": "string",
          "name": "",
          "type": "string"
        },
        {
          "internalType": "uint256",
          "name": "",
          "type": "uint256"
        },
        {
          "internalType": "bool",
          "name": "",
          "type": "bool"
        },
        {
          "internalType": "uint256",
          "name": "",
          "type": "uint256"
        },
        {
          "internalType": "bool",
          "name": "",
          "type": "bool"
        },
        {
          "internalType": "bool",
          "name": "",
          "type": "bool"
        }
      ],
      "payable": false,
      "stateMutability": "view",
      "type": "function"
    },
    {
      "constant": false,
      "inputs": [
        {
          "internalType": "uint256",
          "name": "_id",
          "type": "uint256"
        },
        {
          "internalType": "string",
          "name": "_name",
          "type": "string"
        },
        {
          "internalType": "uint256",
          "name": "_batteryLevel",
          "type": "uint256"
        },
        {
          "internalType": "bool",
          "name": "_on",
          "type": "bool"
        },
        {
          "internalType": "uint256",
          "name": "_duration",
          "type": "uint256"
        },
        {
          "internalType": "bool",
          "name": "_rechable",
          "type": "bool"
        },
        {
          "internalType": "bool",
          "name": "_presence",
          "type": "bool"
        }
      ],
      "name": "modifySensor",
      "outputs": [],
      "payable": false,
      "stateMutability": "nonpayable",
      "type": "function"
    }
  ],
  "bytecode": "0x60806040526001600055600160025534801561001a57600080fd5b506111108061002a6000396000f3fe608060405234801561001057600080fd5b50600436106100885760003560e01c8063a6dba3a01161005b578063a6dba3a01461039c578063b28f0933146103f4578063b608843214610456578063e6f17e17146104b857610088565b8063112f2e961461008d5780631f051b25146100e55780637bd9ecf5146101e2578063a2ecdeb7146102bf575b600080fd5b6100e3600480360360a08110156100a357600080fd5b81019080803590602001909291908035151590602001909291908035906020019092919080359060200190929190803590602001909291905050506105b5565b005b6101e0600480360360e08110156100fb57600080fd5b81019080803590602001909291908035906020019064010000000081111561012257600080fd5b82018360208201111561013457600080fd5b8035906020019184600183028401116401000000008311171561015657600080fd5b91908080601f016020809104026020016040519081016040528093929190818152602001838380828437600081840152601f19601f82011690508083019250505050505050919291929080359060200190929190803515159060200190929190803590602001909291908035151590602001909291908035151590602001909291905050506106fb565b005b61020e600480360360208110156101f857600080fd5b81019080803590602001909291905050506108d8565b6040518088815260200180602001878152602001861515151581526020018581526020018415151515815260200183151515158152602001828103825288818151815260200191508051906020019080838360005b8381101561027e578082015181840152602081019050610263565b50505050905090810190601f1680156102ab5780820380516001836020036101000a031916815260200191505b509850505050505050505060405180910390f35b6102eb600480360360208110156102d557600080fd5b8101908080359060200190929190505050610a4a565b6040518088815260200180602001878152602001861515151581526020018581526020018415151515815260200183151515158152602001828103825288818151815260200191508051906020019080838360005b8381101561035b578082015181840152602081019050610340565b50505050905090810190601f1680156103885780820380516001836020036101000a031916815260200191505b509850505050505050505060405180910390f35b6103f2600480360360a08110156103b257600080fd5b8101908080359060200190929190803515159060200190929190803590602001909291908035906020019092919080359060200190929190505050610b4b565b005b6104206004803603602081101561040a57600080fd5b8101908080359060200190929190505050610c45565b60405180868152602001851515151581526020018481526020018381526020018281526020019550505050505060405180910390f35b6104826004803603602081101561046c57600080fd5b8101908080359060200190929190505050610c88565b60405180868152602001851515151581526020018481526020018381526020018281526020019550505050505060405180910390f35b6105b3600480360360e08110156104ce57600080fd5b8101908080359060200190929190803590602001906401000000008111156104f557600080fd5b82018360208201111561050757600080fd5b8035906020019184600183028401116401000000008311171561052957600080fd5b91908080601f016020809104026020016040519081016040528093929190818152602001838380828437600081840152601f19601f8201169050808301925050505050505091929192908035906020019092919080351515906020019092919080359060200190929190803515159060200190929190803515159060200190929190505050610d23565b005b836001600087815260200190815260200160002060010160006101000a81548160ff0219169083151502179055508260016000878152602001908152602001600020600201819055508160016000878152602001908152602001600020600301819055508060016000878152602001908152602001600020600401819055507fe154d221178f24e1c0f717a45e0954d4aa6cf38dd913447d9c15c287d2aa4cc2856001600088815260200190815260200160002060010160009054906101000a900460ff166001600089815260200190815260200160002060020154600160008a815260200190815260200160002060030154600160008b81526020019081526020016000206004015460405180868152602001851515151581526020018481526020018381526020018281526020019550505050505060405180910390a15050505050565b6040518060e00160405280888152602001878152602001868152602001851515815260200184815260200183151581526020018215158152506003600089815260200190815260200160002060008201518160000155602082015181600101908051906020019061076d929190610fb6565b506040820151816002015560608201518160030160006101000a81548160ff0219169083151502179055506080820151816004015560a08201518160050160006101000a81548160ff02191690831515021790555060c08201518160050160016101000a81548160ff0219169083151502179055509050507fed9f19202eb164ef303a204763716479db17b679b448a86835cc08096f7d9075878787878787876040518088815260200180602001878152602001861515151581526020018581526020018415151515815260200183151515158152602001828103825288818151815260200191508051906020019080838360005b8381101561087d578082015181840152602081019050610862565b50505050905090810190601f1680156108aa5780820380516001836020036101000a031916815260200191505b509850505050505050505060405180910390a160026000815480929190600101919050555050505050505050565b60006060600080600080600087600360008a8152602001908152602001600020600101600360008b815260200190815260200160002060020154600360008c815260200190815260200160002060030160009054906101000a900460ff16600360008d815260200190815260200160002060040154600360008e815260200190815260200160002060050160009054906101000a900460ff16600360008f815260200190815260200160002060050160019054906101000a900460ff16858054600181600116156101000203166002900480601f016020809104026020016040519081016040528092919081815260200182805460018160011615610100020316600290048015610a2a5780601f106109ff57610100808354040283529160200191610a2a565b820191906000526020600020905b815481529060010190602001808311610a0d57829003601f168201915b505050505095509650965096509650965096509650919395979092949650565b6003602052806000526040600020600091509050806000015490806001018054600181600116156101000203166002900480601f016020809104026020016040519081016040528092919081815260200182805460018160011615610100020316600290048015610afc5780601f10610ad157610100808354040283529160200191610afc565b820191906000526020600020905b815481529060010190602001808311610adf57829003601f168201915b5050505050908060020154908060030160009054906101000a900460ff16908060040154908060050160009054906101000a900460ff16908060050160019054906101000a900460ff16905087565b6040518060a00160405280868152602001851515815260200184815260200183815260200182815250600160008781526020019081526020016000206000820151816000015560208201518160010160006101000a81548160ff0219169083151502179055506040820151816002015560608201518160030155608082015181600401559050507f07bf5b06a24c4fdd6aa8f62a79039eeeac583a69afb87a8221c20231efb4bd82858585858560405180868152602001851515151581526020018481526020018381526020018281526020019550505050505060405180910390a160008081548092919060010191905055505050505050565b60016020528060005260406000206000915090508060000154908060010160009054906101000a900460ff16908060020154908060030154908060040154905085565b600080600080600060016000878152602001908152602001600020600001546001600088815260200190815260200160002060010160009054906101000a900460ff166001600089815260200190815260200160002060020154600160008a815260200190815260200160002060030154600160008b8152602001908152602001600020600401549450945094509450945091939590929450565b85600360008981526020019081526020016000206001019080519060200190610d4d929190611036565b50846003600089815260200190815260200160002060020181905550836003600089815260200190815260200160002060030160006101000a81548160ff021916908315150217905550826003600089815260200190815260200160002060040181905550816003600089815260200190815260200160002060050160006101000a81548160ff021916908315150217905550806003600089815260200190815260200160002060050160016101000a81548160ff0219169083151502179055507fab89672b8e0dd72de9aab8af0e50d86372090cf02622b89f61665a6561aa224587600360008a8152602001908152602001600020600101600360008b815260200190815260200160002060020154600360008c815260200190815260200160002060030160009054906101000a900460ff16600360008d815260200190815260200160002060040154600360008e815260200190815260200160002060050160009054906101000a900460ff16600360008f815260200190815260200160002060050160019054906101000a900460ff166040518088815260200180602001878152602001861515151581526020018581526020018415151515815260200183151515158152602001828103825288818154600181600116156101000203166002900481526020019150805460018160011615610100020316600290048015610f995780601f10610f6e57610100808354040283529160200191610f99565b820191906000526020600020905b815481529060010190602001808311610f7c57829003601f168201915b50509850505050505050505060405180910390a150505050505050565b828054600181600116156101000203166002900490600052602060002090601f016020900481019282601f10610ff757805160ff1916838001178555611025565b82800160010185558215611025579182015b82811115611024578251825591602001919060010190611009565b5b50905061103291906110b6565b5090565b828054600181600116156101000203166002900490600052602060002090601f016020900481019282601f1061107757805160ff19168380011785556110a5565b828001600101855582156110a5579182015b828111156110a4578251825591602001919060010190611089565b5b5090506110b291906110b6565b5090565b6110d891905b808211156110d45760008160009055506001016110bc565b5090565b9056fea265627a7a72315820c0b5f21b317ebc278707ad7b0c83f33d227a4f4e0cccd4b8fd42256f69953a4f64736f6c63430005100032",
  "source": "pragma solidity >=0.4.22 <0.9.0;\r\n\r\ncontract Iot{\r\n    uint lightCount = 1;\r\n\r\n    struct Lights {\r\n        uint id;\r\n        bool on;\r\n        uint bri;\r\n        uint hue;\r\n        uint sat;\r\n    }\r\n    mapping (uint => Lights) public allLights;\r\n\r\n    event addNewLight(uint _id, bool _on, uint _bri, uint _hue, uint _sat);\r\n    event modifyLightId(uint _id, bool _on, uint _bri, uint _hue, uint _sat);\r\n    event getDeviceState(uint _id, bool _on, uint _bri, uint _hue, uint _sat);\r\n\r\nfunction addLight(uint _id, bool _on, uint _bri, uint _hue, uint _sat)\r\n    public\r\n{\r\n    allLights[_id] = Lights(_id, _on, _bri, _hue, _sat);\r\n    emit addNewLight(_id, _on, _bri, _hue, _sat);\r\n    lightCount++;\r\n}\r\n\r\nfunction getLightParams(uint _id)\r\n    public view\r\nreturns(uint, bool, uint, uint, uint)\r\n{\r\n    return (allLights[_id].id, allLights[_id].on, allLights[_id].bri, allLights[_id].hue, allLights[_id].sat);\r\n}\r\n\r\nfunction modifyLight(uint _id, bool _on, uint _bri, uint _hue, uint _sat) public {\r\n    allLights[_id].on = _on;\r\n    allLights[_id].bri = _bri;\r\n    allLights[_id].hue = _hue;\r\n    allLights[_id].sat = _sat;\r\n    emit modifyLightId(_id, allLights[_id].on, allLights[_id].bri, allLights[_id].hue, allLights[_id].sat);\r\n}\r\n\r\n\r\n\r\n// ---------------------------------- Sensor -----------------------------------------------------------------------\r\n\r\nuint sensorCount = 1;\r\n\r\nstruct Sensors {\r\n    uint id;\r\n    string name;\r\n    uint batteryLevel;\r\n    bool on;\r\n    uint duration;\r\n    bool rechable;\r\n    bool presence;\r\n}\r\nmapping (uint => Sensors) public allSensors;\r\n\r\nevent addNewSensor(uint _id, string _name, uint _batteryLevel, bool _on, uint _duration, bool _rechable, bool _presence);\r\nevent modifySensorId(uint _id, string _name, uint _batteryLevel, bool _on, uint _duration, bool _rechable, bool _presence);\r\nevent getDeviceState(uint _id, string _name, uint _batteryLevel, bool _on, uint _duration, bool _rechable, bool _presence);\r\n\r\n\r\nfunction addSensor(uint _id, string memory _name, uint _batteryLevel, bool _on, uint _duration, bool _rechable, bool _presence) public \r\n{\r\n    allSensors[_id] = Sensors(_id, _name, _batteryLevel, _on, _duration, _rechable, _presence);\r\n\r\n    emit addNewSensor(_id, _name, _batteryLevel, _on, _duration, _rechable, _presence);\r\n    sensorCount++;\r\n}\r\n\r\nfunction getSensorParams(uint _id) public view returns(uint, string memory, uint, bool, uint, bool, bool) \r\n{\r\n    return (_id, allSensors[_id].name, allSensors[_id].batteryLevel, \r\n                 allSensors[_id].on, allSensors[_id].duration,  \r\n                 allSensors[_id].rechable, allSensors[_id].presence);\r\n}\r\n\r\nfunction modifySensor(uint _id, string memory _name, uint _batteryLevel, bool _on, uint _duration, bool _rechable, bool _presence) public \r\n{\r\n    allSensors[_id].name = _name;\r\n    allSensors[_id].batteryLevel = _batteryLevel;\r\n    allSensors[_id].on = _on;\r\n    allSensors[_id].duration = _duration;\r\n    allSensors[_id].rechable = _rechable;\r\n    allSensors[_id].presence = _presence;\r\n\r\n    emit modifySensorId(_id, allSensors[_id].name, allSensors[_id].batteryLevel, \r\n                             allSensors[_id].on, allSensors[_id].duration,  allSensors[_id].rechable, \r\n                             allSensors[_id].presence);\r\n}\r\n\r\n}\r\n// ---------------------------------------------------------------------------------------------------------\r\n\r\n\r\n    // // USERS\r\n    // uint usersCount = 1;\r\n\r\n    // struct Users {\r\n    //     uint id;\r\n    //     string username;\r\n    //     string password;\r\n    //     string apiKey;\r\n    //     address accountId;\r\n    // }\r\n\r\n    // modifier userExist (address _accountId) {\r\n    //     for (uint user=0; user < usersCount; user++)\r\n    //     {\r\n    //         require (allUsers[user].accountId != _accountId, \"error-account-exist\");\r\n    //     }\r\n    // _;\r\n    // }\r\n\r\n    // mapping (uint => Users) public allUsers;\r\n    // event getUserData(uint _id, string _username, string _password, string _apiKey, address _accountId);\r\n    // event checkPasswordEvent(bool isValid);\r\n\r\n    // function addUser(string memory _username, string memory _password, string memory _apiKey, address _accountId) public userExist(_accountId){\r\n    //     allUsers[usersCount] = Users(usersCount, sd",
  "sourcePath": "/mnt/c/_STUDIA_/Magisterka/iot_blockchain_1_0/contracts/Iot.sol",
  "compiler": {
    "name": "solc",
    "version": "0.5.16+commit.9c3226ce.Emscripten.clang"
  },
  "schemaVersion": "3.4.8",
  "updatedAt": "2022-09-07T14:59:33.969Z",
  "networkType": "ethereum",
  "devdoc": {
    "methods": {}
  },
  "userdoc": {
    "methods": {}
  }
}